:100000000C942A000C9456000C945C000C94000094
:100010000C9400000C9400000C9400000C94000060
:100020000C9400000C9400000C9400000C94000050
:100030000C9400000C9400000C9400000C94000040
:100040000C9400000C9400000C9462000C940000CE
:100050000C940000F894EE27ECBBF1E0FBBFEBBF83
:10006000E5BF8DE0A2E0BB27ED938A95E9F780E03C
:1000700094E0A0E6ED930197E9F7EFE5EDBFE4E04A
:10008000EEBFC0E6D1E00C944500A09AA19AA29AD6
:1000900003D07894FFCFFFCFE5B7EF6FE5BFE4B7AC
:1000A000E064E4BFEBB7E06EEBBF0895A89B02C02D
:1000B000A89801C0A89A1895A99B02C0A99801C048
:1000C000A99A1895AA9B02C0AA9801C0AA9A189545
:00000001FF
