S01000005049445F444B54442E73726563B1
S11300000C942A000C9447000C9447000C9447006D
S11300100C9447000C94B9020C9447000C944700CC
S11300200C9447000C9447000C9447000C94470030
S11300300C9447000C9447000C9447000C94470020
S11300400C9447000C9447000C9447000C94470010
S11300500C94470011241FBECFE5D4E0DEBFCDBF12
S113006010E0A0E6B0E0E2E8FFE002C005900D92E7
S1130070A637B107D9F720E0A6E7B0E001C01D928A
S1130080AA3AB207E1F70E9434040C94BF070C9417
S11300900000672B09F09FC0009711F4D8980895C9
S11300A08130910511F4D99808958230910511F4A5
S11300B0DA9808958330910511F4DB98089584301B
S11300C0910511F4DC9808958530910511F4DD98BB
S11300D008958630910511F4DE98089587309105CE
S11300E011F4DF9808958A30910511F4C0980895A9
S11300F08B30910511F4C19808958C30910511F459
S1130100C29808958D30910511F4C39808958E30E6
S1130110910511F4C49808958F30910511F4C59890
S113012008958031910511F4C6980895813191059F
S113013011F4C79808958431910511F4A89808958D
S11301408531910511F4A99808958631910511F42A
S1130150AA9808958731910511F4AB9808958831D0
S1130160910511F4AC9808958931910511F4AD9875
S113017008958A31910511F4AE9808958B31910553
S113018011F4AF9808958E31910511F49098089563
S11301908F31910511F4919808958032910511F4ED
S11301A0929808958132910511F4939808958232BA
S11301B0910511F4949808958332910511F495985A
S11301C008958432910511F496980895859709F05D
S11301D09FC097980895009711F4D89A0895813094
S11301E0910511F4D99A08958230910511F4DA9A9F
S11301F008958330910511F4DB9A089584309105B4
S113020011F4DC9A08958530910511F4DD9A08956E
S11302108630910511F4DE9A08958730910511F422
S1130220DF9A08958A30910511F4C09A08958B30AD
S1130230910511F4C19A08958C30910511F4C29A74
S113024008958D30910511F4C39A08958E30910567
S113025011F4C49A08958F30910511F4C59A089544
S11302608031910511F4C69A08958131910511F4F4
S1130270C79A08958431910511F4A89A0895853197
S1130280910511F4A99A08958631910511F4AA9A59
S113029008958731910511F4AB9A08958831910539
S11302A011F4AC9A08958931910511F4AD9A089529
S11302B08A31910511F4AE9A08958B31910511F4A8
S11302C0AF9A08958E31910511F4909A08958F3163
S11302D0910511F4919A08958032910511F4929A3E
S11302E008958132910511F4939A0895823291050B
S11302F011F4949A08958332910511F4959A08950E
S11303008432910511F4969A0895859709F4979A81
S11303100895CF93C82F80FF07C061E070E086E1A5
S113032090E00E94490006C060E070E086E190E041
S11303300E944900C1FF07C061E070E087E190E0DE
S11303400E94490006C060E070E087E190E00E94EE
S11303504900C2FF07C061E070E088E190E00E94BC
S1130360490006C060E070E088E190E00E94490026
S1130370C3FF07C061E070E089E190E00E9449009A
S113038006C060E070E089E190E00E944900CF91EE
S11303900895CF93C82F60E070E084E190E00E945C
S11303A049008C2F0E94890161E070E085E190E0B2
S11303B00E9449008FE99FE00197F1F700C0000017
S11303C060E070E085E190E00E9449008FE99FE0E1
S11303D00197F1F700C00000CF910895CF93C62F85
S11303E0813059F480E8860F82958F700E94C9018C
S11303F08C2F8F700E94C9010CC0823051F480ECA4
S1130400860F82958F700E94C9018C2F8F700E9475
S1130410C901CF91089580E00E9489012FEF89EFEF
S113042090E0215080409040E1F700C0000083E05C
S11304300E94C9018FE19EE40197F1F700C000001A
S113044083E00E94C9018FED9BEA0197F1F700C098
S1130450000083E00E94C90182E00E94C90182E099
S11304600E94C90188E00E94C90180E00E94C9017C
S11304708CE00E94C90180E00E94C90186E00E94CC
S1130480C9010895CF93C82F61E070E084E190E042
S11304900E9449008C2F82958F700E94890161E02F
S11304A070E085E190E00E9449008FE99FE00197A8
S11304B0F1F700C0000060E070E085E190E00E9488
S11304C049008FE99FE00197F1F700C000008C2FED
S11304D08F700E94890161E070E085E190E00E94E4
S11304E049008FE99FE00197F1F700C0000060E048
S11304F070E085E190E00E9449008FE99FE0019758
S1130500F1F700C00000CF910895CF93DF93EC0181
S11305108881882331F021960E94420289918111B9
S1130520FBCFDF91CF91089513BE83B78D6683BF50
S113053008954FEF9C01429FC001439F900D1124E9
S11305409C013695279536952795ABE7B4E10E9433
S1130550B007969587958CBF08958E9896981DBC84
S11305601CBC1FBC8EB584648EBD89B7806289BFF4
S113057008951F920F920FB60F9211241DBC1CBC3C
S11305800F900FBE0F901F9018954F925F926F922D
S11305907F928F929F92AF92BF92CF92DF92EF920F
S11305A0FF92CF93DF93CDB7DEB72C970FB6F894B5
S11305B0DEBF0FBECDBF681B790B80E090E00E94C8
S11305C06A062B013C0160939E0070939F00809308
S11305D0A0009093A10080908A0090908B00A0903E
S11305E08C00B0908D00209176003091770040917E
S11305F0780050917900C501B4010E94210720E0E0
S113060030E040E05FE30E9421076D837E838F83A7
S113061098878091A2009091A300A091A400B0912A
S1130620A50089839A83AB83BC83C0909A00D09041
S11306309B00E0909C00F0909D009C01AD016D81B9
S11306407E818F8198850E94580569877A878B8778
S11306509C8720E030E040E05FE3C701B6010E94E0
S113066021079B01AC0169857A858B859C850E9455
S1130670580569877A878B879C8760937E0070937F
S11306807F00809380009093810029813A814B817F
S11306905C816D817E818F8198850E945705698375
S11306A07A838B839C83A7019601C701B6010E94BC
S11306B05805A50194010E94C9059B01AC016981FB
S11306C07A818B819C810E94570569837A838B830D
S11306D09C83609396007093970080939800909306
S11306E09900A5019401C701B6010E94C9056B01D7
S11306F07C016093860070938700809388009093B8
S113070089008090920090909300A0909400B09003
S1130710950029853A854B855C85C301B2010E9409
S1130720210720918E0030918F00409190005091CC
S113073091000E9458056D837E838F839887A5015D
S1130740940169817A818B819C810E9421079B019C
S1130750AC016D817E818F8198850E9458056983E3
S11307607A838B839C832091820030918300409113
S1130770840050918500C701B6010E9421079B01A6
S1130780AC0169817A818B819C810E9458056B013F
S11307907C0160937A0070937B0080937C0090933B
S11307A07D0060938E0070938F00809390009093EF
S11307B091008092820090928300A0928400B09273
S11307C0850040929200509293006092940070923F
S11307D0950020E030E048EC52E40E941C07882396
S11307E06CF080E090E0A8ECB2E480937A009093FF
S11307F07B00A0937C00B0937D0016C020E030E025
S113080048E452E4C701B6010E94C405181664F016
S113081080E090E0A8E4B2E480937A0090937B00B7
S1130820A0937C00B0937D0060917A0070917B006E
S113083080917C0090917D000E943B06CB012C9618
S11308400FB6F894DEBF0FBECDBFDF91CF91FF90FE
S1130850EF90DF90CF90BF90AF909F908F907F905C
S11308606F905F904F900895CF93DF9300D000D0A6
S1130870CDB7DEB78AE097EDA3E2BCE380938A00AC
S113088090938B00A0938C00B0938D0086E19BE73E
S1130890A4E6B1E48093A2009093A300A093A400E3
S11308A0B093A50088E599E3A4EBBBE380937600BD
S11308B090937700A0937800B093790087E197EB49
S11308C0A1EDB8E380939A0090939B00A0939C00C1
S11308D0B0939D00109282001092830010928400C5
S11308E0109285001092920010929300109294003E
S11308F01092950010929E0010929F001092A000FA
S11309001092A10010928600109287001092880025
S113091010928900109296001092970010929800FD
S11309201092990010927E0010927F001092800025
S11309301092810010928E0010928F0010929000FD
S11309401092910010927A0010927B0010927C0019
S113095010927D00BB9A8FEF84BB0E940B020E9411
S113096094020E94AD02789480E690E00E94850291
S113097060E082E00E94EE018DE690E00E94850234
S11309800F2EF8EE8F2EF3E09F2EA12CB12CF02D1C
S11309900F2EFAE04F2E512C612C712CF02D66B5E0
S11309A077B5CB01A0E0B0E06627782F892F9A2F86
S11309B00E946A0620E030E040E85DE30E942107DF
S11309C020E030E040EC51E40E9421079B01AC019F
S11309D060EC71EE84E69CE40E94C9050E943B062B
S11309E06B017C0164E670E0C6010E94C5020E94AE
S11309F0990268E082E00E94EE01C701B60120E19D
S1130A0037E240E050E00E948E0769837A838B834B
S1130A109C8380E3820F0E94420269817A818B81E8
S1130A209C81A50194010E948E0780E3820F0E949D
S1130A304202C701B601A50194010E948E0724E673
S1130A4030E040E050E00E948E0780E3820F0E9475
S1130A504202C701B60124E630E040E050E00E94C3
S1130A608E07A30192010E948E0780E3820F0E94E9
S1130A704202C701B601A30192010E948E0780E3DE
S1130A80860F0E9442026CE081E00E94EE0181E345
S1130A900E94420280E30E94420280E30E944202DA
S1130AA08FE39CE90197F1F700C0000078CF50581C
S1130AB0BB27AA270E946F050C94E2060E94D40665
S1130AC038F00E94DB0620F039F49F3F19F426F435
S1130AD00C94D1060EF4E095E7FB0C94CB06E92FB9
S1130AE00E94F30658F3BA17620773078407950741
S1130AF020F079F4A6F50C9415070EF4E0950B2E6E
S1130B00BA2FA02D0B01B90190010C01CA01A0015B
S1130B101124FF27591B99F0593F50F4503E68F1B6
S1130B201A16F040A22F232F342F4427585FF3CFF7
S1130B30469537952795A795F0405395C9F77EF4C8
S1130B401F16BA0B620B730B840BBAF09150A1F011
S1130B50FF0FBB1F661F771F881FC2F70EC0BA0F97
S1130B60621F731F841F48F4879577956795B7951F
S1130B70F7959E3F08F0B0CF9395880F08F099271A
S1130B80EE0F9795879508950E94A70608F481E0D3
S1130B9008950E94DD050C94E2060E94DB0658F0DD
S1130BA00E94D40640F029F45F3F29F00C94CB0650
S1130BB051110C9416070C94D1060E94F30668F3A5
S1130BC09923B1F3552391F3951B550BBB27AA2702
S1130BD062177307840738F09F5F5F4F220F331F3C
S1130BE0441FAA1FA9F335D00E2E3AF0E0E832D004
S1130BF091505040E695001CCAF72BD0FE2F29D007
S1130C00660F771F881FBB1F261737074807AB07D8
S1130C10B0E809F0BB0B802DBF01FF2793585F4F4D
S1130C203AF09E3F510578F00C94CB060C941607CD
S1130C305F3FE4F3983ED4F3869577956795B7952F
S1130C40F7959F5FC9F7880F911D9695879597F93A
S1130C500895E1E0660F771F881FBB1F62177307B3
S1130C608407BA0720F0621B730B840BBA0BEE1FC8
S1130C7088F7E09508950E94FB0688F09F5798F046
S1130C80B92F9927B751B0F0E1F0660F771F881F8D
S1130C90991F1AF0BA95C9F714C0B13091F00E94A7
S1130CA01507B1E008950C941507672F782F88274E
S1130CB0B85F39F0B93FCCF3869577956795B395CE
S1130CC0D9F73EF490958095709561957F4F8F4F3D
S1130CD09F4F0895E89409C097FB3EF49095809542
S1130CE0709561957F4F8F4F9F4F9923A9F0F92FEE
S1130CF096E9BB279395F695879577956795B7956C
S1130D00F111F8CFFAF4BB0F11F460FF1BC06F5F51
S1130D107F4F8F4F9F4F16C0882311F096E911C063
S1130D20772321F09EE8872F762F05C0662371F084
S1130D3096E8862F70E060E02AF09A95660F771F98
S1130D40881FDAF7880F9695879597F90895990F74
S1130D500008550FAA0BE0E8FEEF16161706E80781
S1130D60F907C0F012161306E407F50798F0621BA2
S1130D70730B840B950B39F40A2661F0232B242B77
S1130D80252B21F408950A2609F4A140A6958FEF96
S1130D90811D811D089597F99F6780E870E060E0E8
S1130DA008959FEF80EC089500240A941616170600
S1130DB018060906089500240A9412161306140648
S1130DC005060895092E0394000C11F4882352F0AB
S1130DD0BB0F40F4BF2B11F460FF04C06F5F7F4F63
S1130DE08F4F9F4F089557FD9058440F551F59F04A
S1130DF05F3F71F04795880F97FB991F61F09F3F04
S1130E0079F087950895121613061406551FF2CF2C
S1130E104695F1DF08C0161617061806991FF1CF7C
S1130E2086957105610508940895E894BB276627A3
S1130E307727CB0197F908950E94A70608F48FEF4E
S1130E4008950E9434070C94E2060E94D40638F0F8
S1130E500E94DB0620F0952311F00C94CB060C9431
S1130E60D10611240C9416070E94F30670F3959F83
S1130E70C1F3950F50E0551F629FF001729FBB278D
S1130E80F00DB11D639FAA27F00DB11DAA1F649F29
S1130E906627B00DA11D661F829F2227B00DA11DDC
S1130EA0621F739FB00DA11D621F839FA00D611D62
S1130EB0221F749F3327A00D611D231F849F600D83
S1130EC0211D822F762F6A2F11249F5750409AF0AC
S1130ED0F1F088234AF0EE0FFF1FBB1F661F771F38
S1130EE0881F91505040A9F79E3F510580F00C9403
S1130EF0CB060C9416075F3FE4F3983ED4F3869533
S1130F0077956795B795F795E7959F5FC1F7FE2BA2
S1130F10880F911D9695879597F90895A1E21A2E49
S1130F20AA1BBB1BFD010DC0AA1FBB1FEE1FFF1F89
S1130F30A217B307E407F50720F0A21BB30BE40BD9
S1130F40F50B661F771F881F991F1A9469F7609520
S1130F507095809590959B01AC01BD01CF010895DA
S1130F60A29FB001B39FC001A39F700D811D1124E6
S1130F70911DB29F700D811D1124911D0895F89447
S1050F80FFCF9D
S1130F82546F6320646F206461743A2000546F6369
S1090F9220646F3A200008
S9030000FC
