:020000000C945E
:100002002F000C9400000C9400000C9400000C943F
:1000120000000C9400000C9400000C9400000C945E
:1000220000000C9400000C9400000C9400000C944E
:1000320000000C9400000C9400000C9400000C943E
:1000420000000C9400000C9400000C9400000C942E
:10005200000080C00200600154000000F894EE2706
:10006200ECBBF1E0FBBFEBBFE5BF8DE0A2E0BB273D
:10007200ED938A95E9F780E094E0A0E6ED9301978D
:10008200E9F7E6E5F0E085919591009761F0A59199
:10009200B59105901590BF01F00105900D92019761
:1000A200E1F7FB01F0CFEFE5EDBFE4E0EEBFC0E624
:1000B200D1E00C945C002497EFEFEABBE7BBE4BB12
:1000C200E1BBEAEA0E947F00E5E50E947F00F9CFEA
:1000D200FFCFFFE0FA95F1F70895A4B3AF70A4BB88
:1000E200A99AA898F6DFAA9AF4DFA3B3AA98F1DF37
:1000F200AA9AEFDFAA98A7FDF5CF0895E2BBE5BB68
:10010200E8BBEBBBA4EFB1E00C948700109639F08A
:1001120080EA9FE00197F1F7A8951197C9F7089532
:00000001FF
