:100000000C942A000C9447000C9447000C94470071
:100010000C9447000C9447000C9447000C94470044
:100020000C9447000C9447000C94AF030C944700C9
:100030000C9447000C9447000C9447000C94470024
:100040000C9447000C9447000C9447000C94470014
:100050000C94470011241FBECFE5D4E0DEBFCDBF16
:1000600010E0A0E6B0E0ECECF8E002C005900D92E4
:10007000AA36B107D9F720E0AAE6B0E001C01D9288
:10008000A737B207E1F70E9491030C9464040C9423
:100090000000672B09F09FC0009711F4D8980895CD
:1000A0008130910511F4D99808958230910511F4A9
:1000B000DA9808958330910511F4DB98089584301F
:1000C000910511F4DC9808958530910511F4DD98BF
:1000D00008958630910511F4DE98089587309105D2
:1000E00011F4DF9808958A30910511F4C0980895AD
:1000F0008B30910511F4C19808958C30910511F45D
:10010000C29808958D30910511F4C39808958E30EA
:10011000910511F4C49808958F30910511F4C59894
:1001200008958031910511F4C698089581319105A3
:1001300011F4C79808958431910511F4A898089591
:100140008531910511F4A99808958631910511F42E
:10015000AA9808958731910511F4AB9808958831D4
:10016000910511F4AC9808958931910511F4AD9879
:1001700008958A31910511F4AE9808958B31910557
:1001800011F4AF9808958E31910511F49098089567
:100190008F31910511F4919808958032910511F4F1
:1001A000929808958132910511F4939808958232BE
:1001B000910511F4949808958332910511F495985E
:1001C00008958432910511F496980895859709F061
:1001D0009FC097980895009711F4D89A0895813098
:1001E000910511F4D99A08958230910511F4DA9AA3
:1001F00008958330910511F4DB9A089584309105B8
:1002000011F4DC9A08958530910511F4DD9A089572
:100210008630910511F4DE9A08958730910511F426
:10022000DF9A08958A30910511F4C09A08958B30B1
:10023000910511F4C19A08958C30910511F4C29A78
:1002400008958D30910511F4C39A08958E3091056B
:1002500011F4C49A08958F30910511F4C59A089548
:100260008031910511F4C69A08958131910511F4F8
:10027000C79A08958431910511F4A89A089585319B
:10028000910511F4A99A08958631910511F4AA9A5D
:1002900008958731910511F4AB9A0895883191053D
:1002A00011F4AC9A08958931910511F4AD9A08952D
:1002B0008A31910511F4AE9A08958B31910511F4AC
:1002C000AF9A08958E31910511F4909A08958F3167
:1002D000910511F4919A08958032910511F4929A42
:1002E00008958132910511F4939A0895823291050F
:1002F00011F4949A08958332910511F4959A089512
:100300008432910511F4969A0895859709F4979A85
:100310000895CF93C82F80FF07C061E070E086E1A9
:1003200090E00E94490006C060E070E086E190E045
:100330000E944900C1FF07C061E070E087E190E0E2
:100340000E94490006C060E070E087E190E00E94F2
:100350004900C2FF07C061E070E088E190E00E94C0
:10036000490006C060E070E088E190E00E9449002A
:10037000C3FF07C061E070E089E190E00E9449009E
:1003800006C060E070E089E190E00E944900CF91F2
:100390000895CF93C82F60E070E084E190E00E9460
:1003A00049008C2F0E94890161E070E085E190E0B6
:1003B0000E9449008FE99FE00197F1F700C000001B
:1003C00060E070E085E190E00E9449008FE99FE0E5
:1003D0000197F1F700C00000CF910895CF93C62F89
:1003E000813059F480E8860F82958F700E94C90190
:1003F0008C2F8F700E94C9010CC0823051F480ECA8
:10040000860F82958F700E94C9018C2F8F700E9479
:10041000C901CF91089580E00E9489012FEF89EFF3
:1004200090E0215080409040E1F700C0000083E060
:100430000E94C9018FE19EE40197F1F700C000001E
:1004400083E00E94C9018FED9BEA0197F1F700C09C
:10045000000083E00E94C90182E00E94C90182E09D
:100460000E94C90188E00E94C90180E00E94C90180
:100470008CE00E94C90180E00E94C90186E00E94D0
:10048000C9010895CF93C82F61E070E084E190E046
:100490000E9449008C2F82958F700E94890161E033
:1004A00070E085E190E00E9449008FE99FE00197AC
:1004B000F1F700C0000060E070E085E190E00E948C
:1004C00049008FE99FE00197F1F700C000008C2FF1
:1004D0008F700E94890161E070E085E190E00E94E8
:1004E00049008FE99FE00197F1F700C0000060E04C
:1004F00070E085E190E00E9449008FE99FE001975C
:10050000F1F700C00000CF910895CF93DF93EC0185
:100510008881882331F021960E94420289918111BD
:10052000FBCFDF91CF910895CF92DF92EF92FF92B0
:100530000F931F93CF93DF938C01EB0164E081E075
:100540000E94EE01980136952795369527953695A8
:100550002795A5ECB0E20E9455046C01D694C7948F
:10056000D694C794D694C794D694C79480E38C0D40
:100570000E9442020F2EF8EEEF2EF3E0FF2EF02D38
:10058000CE9CC001CF9C900DDE9C900D1124980153
:10059000281B390B3695279536952795ABE7B4E19F
:1005A0000E94550496958795805D0E9442029801AD
:1005B0003695279536952795ABE7B4E10E9455040B
:1005C000969587950F2EF4E6DF2EF02DD89E90019C
:1005D000D99E300D1124C801821B930B9C01ADECF8
:1005E000BCEC0E94550496958795969587959695AF
:1005F0008795805D0E9442029801ADECBCEC0E94A0
:1006000055049695879596958795969587959C011F
:10061000220F331F880F991F880F991F880F991F6A
:10062000820F931F9801281B390BC901805D0E941E
:10063000420264E082E00E94EE019E013695279519
:100640003695279536952795A5ECB0E20E9455047E
:100650008C01129502950F7001271F70012780E30E
:10066000800F0E9442020E9DC0010F9D900D1E9DA5
:10067000900D11249E01281B390B36952795369530
:100680002795ABE7B4E10E94550496958795805D68
:100690000E9442029E013695279536952795ABE735
:1006A000B4E10E94550496958795D89E9001D99EF5
:1006B000300D1124CE01821B930B9C01ADECBCECE0
:1006C0000E9455049695879596958795969587955A
:1006D000805D0E9442029E01ADECBCEC0E9455047C
:1006E0009695879596958795969587959C01220F67
:1006F000331F880F991F880F991F880F991F820F2A
:10070000931F9E01281B390BC901805D0E94420284
:10071000DF91CF911F910F91FF90EF90DF90CF90DD
:1007200008958FEF84BB0E9430040E940B027894DE
:1007300080E690E00E94850260E082E00E94EE0187
:1007400085E690E00E94850260916C0070916D00DA
:1007500080916A0090916B000E949402F5CF1F92E5
:100760000F920FB60F9211242F933F934F935F93E5
:100770006F937F938F939F93AF93BF93CF93DF93A9
:10078000EF93FF930E943B04809376008A3331F409
:1007900068E070E08EE690E00E943F04EEE6F0E054
:1007A000208168EE73E0269FC001279F900D1124E1
:1007B0002181A4E6AC01A29F400D511D112492811C
:1007C000892F90E0EC01CC0FDD1F9C01220F331F1D
:1007D000220F331F220F331FCE01820F931F840F6E
:1007E000951F2381820F911D90936B0080936A0067
:1007F0002481269FC001279F900D11242581AC01E3
:10080000A29F400D511D11249681892F90E0BC01BB
:10081000660F771F9C01220F331F220F331F220FF9
:10082000331FCB01820F931F840F951F2781820FE7
:10083000911D90936D0080936C00FF91EF91DF917B
:10084000CF91BF91AF919F918F917F916F915F9168
:100850004F913F912F910F900FBE0F901F901895C1
:1008600087B38F7487BBBE9A6F9A6C988DB1836083
:100870008DB96E9A0895779BFECF8FB108950F932F
:100880001F93CF93DF936115710551F08C01EC013B
:10089000060F171F0E943B048993C017D107D1F799
:1008A000DF91CF911F910F910895A29FB001B39F47
:1008B000C001A39F700D811D1124911DB29F700D69
:0C08C000811D1124911D0895F894FFCFB4
:0A08CC0078203D200079203D200037
:00000001FF
