:040000000C943C0020
:100004000C9400000C9400000C9400000C9400006C
:100014000C9400000C9400000C9400000C9400005C
:100024000C9400000C9400000C9400000C9400004C
:100034000C9400000C9400000C9400000C9400003C
:100044000C9400000C9400000C9400000C9400002C
:10005400476961207472693A20004E6869657420AA
:10006400646F3A2000000A00600154000B006A012A
:100074005E000000F894EE27ECBBF1E0FBBFEBBFA1
:10008400E5BF8DE0A2E0BB27ED938A95E9F780E018
:1000940094E0A0E6ED930197E9F7EAE6F0E08591B4
:1000A4009591009761F0A591B59105901590BF01C8
:1000B400F00105900D920197E1F7FB01F0CFEFE518
:1000C400EDBFE4E0EEBFC0E6D1E00C946900B89A5D
:1000D400B99ABA9ABB9ABC9ABD9A86D02ED0A0E699
:1000E400B1E0ADD0E2E0EA93A1E05FD0AAE6B1E0EE
:1000F400A6D0A0E027D08F01E1E0EA93AAE055D092
:10010400D801E8EEF3E0B7D0E8EEF3E00E946D0129
:10011400DF01E4E6F0E0AFD0E4E6F0E00E946D0138
:10012400DF01EAE0F0E0A7D0EAE0F0E00E946D0130
:10013400E05DAE2F70D0DDCFFFCF3E9AE6B1E6682A
:10014400E6B90895AA93E7B1A881EA2BE7B98BE150
:100154008A95F1F7369A349AE4B1F5B124C0AA939A
:10016400E881E17011F0C29A01C0C298E881E2709E
:1001740011F0C39A01C0C398E881E47011F0C49AE5
:1001840001C0C498E881E87011F0C59A01C0C5980F
:100194000AC0AA93C098A881E2DFC19AA4E0B0E0A3
:1001A4000E945001C19821960895AA930E9470015B
:1001B400AD81A13019F4AC81A05805C0AD81A23045
:1001C40079F4AC81A054A1501A2FE12FE295EF707D
:1001D4000E2FE12FEF703E2FA02FDBDFA32FD9DFEF
:1001E4000E94750126960895A0E0B9DFA4E14AD0E3
:1001F400A5E048D0ABE046D0A2E0CBDFA2E0C9DF67
:10020400A8E0C7DFA0E0C5DFACE0C3DFA0E0C1DF4A
:10021400A6E0BFDF0895AA931A930A93EA81EF70C8
:100224001E2FEA81E07F0E2FC09AE295EF70AE2F69
:100234002ED0A12F2CD01981088123960895BA932A
:10024400AA931A930A9300E010E0F801AA81BB81F3
:10025400AE0FBF1FEC91E03051F0F801AA81BB81D1
:10026400AE0FBF1FAC91D7DF0F5F1F4FEECF1981C9
:100274000881249608950E945A01E05DAE2FCBDFD9
:10028400D8010895B0E00E945001A3E082CF67DF57
:10029400C19A8BE68A95F1F7C1980895109639F0C2
:1002A40080ED97E00197F1F7A8951197C9F70895A4
:1002B4000024112490E1AA0FBB1F001C111C0E1A6C
:1002C4001F0A18F40E0E1F1E01C0A1609A9599F71B
:1002D400FD01D0010895ECDFFD0108953A932A93BE
:1002E4001A930A9308953B812A81198108810895FC
:00000001FF
