S0100000546573745F4849512E7372656333
S11300000C942A000C9445000C943C000C943C0085
S11300100C943C000C943C000C943C000C943C006C
S11300200C9498000C943C000C943C000C943C0000
S11300300C943C000C943C000C943C000C943C004C
S11300400C943C000C943C000C943C000C943C003C
S11300500C943C0011241FBECFE5D4E0DEBFCDBF1D
S113006020E0A0E6B0E001C01D92A236B207E1F79D
S11300700E94C0000C94C8000C94000085B78E6FD9
S113008085BF8BB780648BBF08951F920F920FB604
S11300900F9211242F938F939F939BB382E0892710
S11300A08BBB829908C085B7836085BFD89A8EB50B
S11300B081608EBD35C085B7826085BF85B715BEAA
S11300C0D8988EB51EBC8091600090916100813DEE
S11300D0974028F49BB380E289278BBB1DC0809195
S11300E0600090916100813D974060F080916000D4
S11300F0909161008838934128F49BB380E4892768
S11301008BBB0AC080916000909161008938934153
S113011018F08BB380588BBB109261001092600072
S11301209F918F912F910F900FBE0F901F90189554
S11301301F920F920FB60F9211248F939F9380E812
S113014091EC9DBD8CBD9BB384E089278BBB8091D2
S1130150600090916100019690936100809360002B
S11301609F918F910F900FBE0F901F90189580E86C
S113017091EC9DBD8CBD1FBC89B7846089BF089577
S11301808FEF8ABB0E943E000E94B7007894FFCF95
S1070190F894FFCF0D
S9030000FC
