S0130000436170747572655F4153372E7372656313
S11300000C942A000C943F000C943F000C943F0085
S11300100C943F000C9482030C943F000C943F001A
S11300200C943F000C943F000C943F000C943F0050
S11300300C943F000C943F000C943F000C943F0040
S11300400C943F000C943F000C943F000C943F0030
S11300500C943F0011241FBECFE5D4E0DEBFCDBF1A
S113006010E0A0E6B0E0ECE9FAE002C005900D92E1
S1130070A437B107D9F70E9498020C944C050C944C
S11300800000672B09F09FC0009711F4D8980895D9
S11300908130910511F4D99808958230910511F4B5
S11300A0DA9808958330910511F4DB98089584302B
S11300B0910511F4DC9808958530910511F4DD98CB
S11300C008958630910511F4DE98089587309105DE
S11300D011F4DF9808958A30910511F4C0980895B9
S11300E08B30910511F4C19808958C30910511F469
S11300F0C29808958D30910511F4C39808958E30F7
S1130100910511F4C49808958F30910511F4C598A0
S113011008958031910511F4C698089581319105AF
S113012011F4C79808958431910511F4A89808959D
S11301308531910511F4A99808958631910511F43A
S1130140AA9808958731910511F4AB9808958831E0
S1130150910511F4AC9808958931910511F4AD9885
S113016008958A31910511F4AE9808958B31910563
S113017011F4AF9808958E31910511F49098089573
S11301808F31910511F4919808958032910511F4FD
S1130190929808958132910511F4939808958232CA
S11301A0910511F4949808958332910511F495986A
S11301B008958432910511F496980895859709F06D
S11301C09FC097980895009711F4D89A08958130A4
S11301D0910511F4D99A08958230910511F4DA9AAF
S11301E008958330910511F4DB9A089584309105C4
S11301F011F4DC9A08958530910511F4DD9A08957F
S11302008630910511F4DE9A08958730910511F432
S1130210DF9A08958A30910511F4C09A08958B30BD
S1130220910511F4C19A08958C30910511F4C29A84
S113023008958D30910511F4C39A08958E30910577
S113024011F4C49A08958F30910511F4C59A089554
S11302508031910511F4C69A08958131910511F404
S1130260C79A08958431910511F4A89A08958531A7
S1130270910511F4A99A08958631910511F4AA9A69
S113028008958731910511F4AB9A08958831910549
S113029011F4AC9A08958931910511F4AD9A089539
S11302A08A31910511F4AE9A08958B31910511F4B8
S11302B0AF9A08958E31910511F4909A08958F3173
S11302C0910511F4919A08958032910511F4929A4E
S11302D008958132910511F4939A0895823291051B
S11302E011F4949A08958332910511F4959A08951E
S11302F08432910511F4969A0895859709F4979A92
S11303000895CF93C82F80FF07C061E070E086E1B5
S113031090E00E94410006C060E070E086E190E059
S11303200E944100C1FF07C061E070E087E190E0F6
S11303300E94410006C060E070E087E190E00E9406
S11303404100C2FF07C061E070E088E190E00E94D4
S1130350410006C060E070E088E190E00E94410046
S1130360C3FF07C061E070E089E190E00E944100B2
S113037006C060E070E089E190E00E944100CF9106
S11303800895CF93C82F60E070E084E190E00E946C
S113039041008C2F0E94810161E070E085E190E0D2
S11303A00E9441008FE99FE00197F1F700C000002F
S11303B060E070E085E190E00E9441008FE99FE0F9
S11303C00197F1F700C00000CF910895CF93C62F95
S11303D0813059F480E8860F82958F700E94C101A4
S11303E08C2F8F700E94C1010CC0823051F480ECBC
S11303F0860F82958F700E94C1018C2F8F700E948E
S1130400C101CF91089580E00E9481012FEF89EF0F
S113041090E0215080409040E1F700C0000083E06C
S11304200E94C1018FE19EE40197F1F700C0000032
S113043083E00E94C1018FED9BEA0197F1F700C0B0
S1130440000083E00E94C10182E00E94C10182E0B9
S11304500E94C10188E00E94C10180E00E94C101A4
S11304608CE00E94C10180E00E94C10186E00E94EC
S1130470C1010895CF93C82F61E070E084E190E05A
S11304800E9441008C2F82958F700E94810161E04F
S113049070E085E190E00E9441008FE99FE00197C0
S11304A0F1F700C0000060E070E085E190E00E9498
S11304B041008FE99FE00197F1F700C000008C2F05
S11304C08F700E94810161E070E085E190E00E94FC
S11304D041008FE99FE00197F1F700C0000060E060
S11304E070E085E190E00E9441008FE99FE0019770
S11304F0F1F700C00000CF910895CF93DF93EC0192
S11305008881882331F021960E943A0289918111D1
S1130510FBCFDF91CF9108958E9896981DBC1CBC9B
S11305201FBC8EB584648EBD89B7806289BF08956F
S1130530CF93DF9300D000D0CDB7DEB78FEF84BB6D
S11305400E948C020E940302789480E690E00E944C
S11305507D0260E082E00E94E6018AE690E00E946B
S11305607D020F2EFAE04F2E512C612C712CF02DB0
S113057066B577B5CB01A0E0B0E06627782F892F68
S11305809A2F0E942F0420E030E040E85DE30E94AF
S1130590BD046B017C0120E030E040EC51E40E949A
S11305A0BD049B01AC0160EC71EE84E69CE40E9406
S11305B08E030E9400044B015C01C701B6010E9436
S11305C000046B017C016AE081E00E94E601C7013E
S11305D0B60120E137E240E050E00E942A05698339
S11305E07A838B839C8380E3820F0E943A02698121
S11305F07A818B819C8128EE33E040E050E00E94B8
S11306002A0580E3820F0E943A02C701B60128EE50
S113061033E040E050E00E942A0524E630E040E068
S113062050E00E942A0580E3820F0E943A02C7012B
S1130630B60124E630E040E050E00E942A05A30120
S113064092010E942A0580E3820F0E943A02C701A8
S1130650B601A30192010E942A0580E3860F0E943D
S11306603A0269E082E00E94E601C501B40120E19A
S113067037E240E050E00E942A056B017C0180E3F0
S1130680820F0E943A02C701B60128EE33E040E02F
S113069050E00E942A0580E3820F0E943A02C501BD
S11306A0B40128EE33E040E050E00E942A0524E63D
S11306B030E040E050E00E942A0580E3820F0E946F
S11306C03A02C501B40124E630E040E050E00E9463
S11306D02A05A30192010E942A0580E3820F0E9449
S11306E03A02C501B401A30192010E942A0580E3E4
S11306F0860F0E943A028FE39CE90197F1F700C04C
S1130700000036CF1F920F920FB60F9211241DBC1A
S11307101CBC0F900FBE0F901F9018950E94A2034F
S11307200C9483040E947C0458F00E94750440F0E9
S113073029F45F3F29F00C946C0451110C94B70414
S11307400C9472040E94940468F39923B1F3552322
S113075091F3951B550BBB27AA27621773078407D0
S113076038F09F5F5F4F220F331F441FAA1FA9F366
S113077035D00E2E3AF0E0E832D091505040E69554
S1130780001CCAF72BD0FE2F29D0660F771F881FB5
S1130790BB1F261737074807AB07B0E809F0BB0BA8
S11307A0802DBF01FF2793585F4F3AF09E3F5105BC
S11307B078F00C946C040C94B7045F3FE4F3983E17
S11307C0D4F3869577956795B795F7959F5FC9F7A5
S11307D0880F911D9695879597F90895E1E0660F26
S11307E0771F881FBB1F621773078407BA0720F09F
S11307F0621B730B840BBA0BEE1F88F7E095089508
S11308000E949C0488F09F5798F0B92F9927B751FC
S1130810B0F0E1F0660F771F881F991F1AF0BA95A0
S1130820C9F714C0B13091F00E94B604B1E0089544
S11308300C94B604672F782F8827B85F39F0B93F36
S1130840CCF3869577956795B395D9F73EF4909553
S11308508095709561957F4F8F4F9F4F0895E894D1
S113086009C097FB3EF490958095709561957F4FF4
S11308708F4F9F4F9923A9F0F92F96E9BB279395A2
S1130880F695879577956795B795F111F8CFFAF4B2
S1130890BB0F11F460FF1BC06F5F7F4F8F4F9F4FE3
S11308A016C0882311F096E911C0772321F09EE841
S11308B0872F762F05C0662371F096E8862F70E0A7
S11308C060E02AF09A95660F771F881FDAF7880F81
S11308D09695879597F9089597F99F6780E870E052
S11308E060E008959FEF80EC089500240A941616A2
S11308F0170618060906089500240A94121613060A
S1130900140605060895092E0394000C11F4882397
S113091052F0BB0F40F4BF2B11F460FF04C06F5FB3
S11309207F4F8F4F9F4F089557FD9058440F551F89
S113093059F05F3F71F04795880F97FB991F61F05D
S11309409F3F79F087950895121613061406551FD4
S1130950F2CF4695F1DF08C0161617061806991F40
S1130960F1CF86957105610508940895E894BB2735
S113097066277727CB0197F908950E94D0040C9439
S113098083040E94750438F00E947C0420F09523AF
S113099011F00C946C040C94720411240C94B7049C
S11309A00E94940470F3959FC1F3950F50E0551F76
S11309B0629FF001729FBB27F00DB11D639FAA27B0
S11309C0F00DB11DAA1F649F6627B00DA11D661FFF
S11309D0829F2227B00DA11D621F739FB00DA11D20
S11309E0621F839FA00D611D221F749F3327A00DDA
S11309F0611D231F849F600D211D822F762F6A2F76
S1130A0011249F5750409AF0F1F088234AF0EE0FDA
S1130A10FF1FBB1F661F771F881F91505040A9F707
S1130A209E3F510580F00C946C040C94B7045F3F16
S1130A30E4F3983ED4F3869577956795B795F79543
S1130A40E7959F5FC1F7FE2B880F911D96958795BB
S1130A5097F90895A1E21A2EAA1BBB1BFD010DC034
S1130A60AA1FBB1FEE1FFF1FA217B307E407F5075A
S1130A7020F0A21BB30BE40BF50B661F771F881F36
S1130A80991F1A9469F760957095809590959B01CC
S10F0A90AC01BD01CF010895F894FFCF24
S1130A9C476961207472693A2000436875206B7948
S1070AAC3A200000E8
S9030000FC
