S01200004932435F686F636176722E7372656372
S11300000C942A000C943F000C943F000C943F0085
S11300100C943F000C943F000C943F000C943F0060
S11300200C943F000C943F000C943F000C943F0050
S11300300C943F000C943F000C943F000C943F0040
S11300400C943F000C943F000C943F000C943F0030
S11300500C943F0011241FBECFE5D4E0DEBFCDBF1A
S113006010E0A0E6B0E0E4E8F2E002C005900D92F2
S1130070A238B107D9F70E942F010C9440010C94C7
S1130080000011B888E480B9089594EA96BF06B6D2
S113009007FEFDCF91B1987F983071F483B984E85D
S11300A086BF06B607FEFDCF81B1887F883131F067
S11300B0803231F083E0089580E0089581E008956E
S11300C082E0089584E986BF06B604FCFDCF089556
S11300D083B984E886BF06B607FEFDCF81B1887F69
S11300E0883221F0803321F082E0089580E0089581
S11300F081E008950F931F93CF9390E1899F80012E
S11301001124C82FC07F8EE40E9445008C2F8D607F
S11301100E9468008FE39FE10197F1F700C000009F
S11301208C2F89600E9468008FE39FE10197F1F7AB
S113013000C00000802F8D600E9468008FE39FE163
S11301400197F1F700C00000802F89600E946800C9
S11301500E946200CF911F910F9108950F931F93F6
S1130160CF9390E1899F80011124C82FC07F8EE432
S11301700E9445008C2F8C600E9468008FE39FE1F1
S11301800197F1F700C000008C2F88600E9468007E
S11301908FE39FE10197F1F700C00000802F8C608E
S11301A00E9468008FE39FE10197F1F700C000000F
S11301B0802F88600E9468000E946200CF911F9186
S11301C00F91089582E00E94AE008FE39FE10197B2
S11301D0F1F700C0000088E20E94AE008FE99FE0C2
S11301E00197F1F700C000008CE00E94AE008FE997
S11301F09FE00197F1F700C0000080E80E94AE0084
S11302008FE99FE00197F1F700C0000081E00E94B0
S1130210AE008FE39FE10197F1F700C0000008955D
S1130220CF93DF93EC018881882331F021960E94DB
S11302307A0089918111FBCFDF91CF9108958130AC
S113024011F080EC01C080E86150860F0E94AE007E
S11302508FE39FE10197F1F700C0000008950E9429
S113026041000E94E20080E690E00E94100161E0FB
S113027082E00E941F0181E790E00E941001FFCFFD
S1070280F894FFCF1C
S11302845048414D205155414E47205048554F4305
S113029400545520444F4E4720484F41202D2035CB
S10502A437001D
S9030000FC
