:100000000C942A0A0C94340A0C94340A0C94340A82
:100010000C94340A0C94340A0C94340A0C94340A68
:100020000C94340A0C94340A0C94340A0C94340A58
:100030000C94340A0C94340A0C94340A0C94340A48
:100040000C94340A0C94340A0C94340A0C94340A38
:100050000C94340A000000000000000000000000C2
:100060000000000000000000000000000000000090
:100070000000000000000000000000000000000080
:100080000000000000000000000000000000000070
:100090000000000000000000000000000000000060
:1000A0000000000000C0C0C0C0C0C0C0C0C0C0E0F0
:1000B000E060602000000000000000000000000080
:1000C0000000000000000000000000000000000030
:1000D0000000000000000000000000000000000020
:1000E000000000000000000000000000008080C050
:1000F000C0E0E0E0F0F0F0F0F8F8F8F8F8F8F8F820
:10010000F8F8F8F8F8F8F8F8F8F8F8F8F8F8F8F86F
:10011000F8F8F8F8F8F8F8F8F8F8F8F8F8F8F8F85F
:10012000F8F8FCFCFCFFFFFFFFFFFFFFFFFFFFFFF6
:10013000DFDF9F9F1B190900000000000000000086
:1001400000000000000000000000000000000000AF
:10015000000000000000000000000000008080801F
:100160008080808080808080E0F8FCFEFFFFFFFFC1
:10017000FFFFFFFFFFFFFFFFFFFFFF7FFFFFFFEF1F
:10018000EFFFFFFFFFFFFFFFFFFFFFFFBF9F3F3FAF
:100190007FBF9F1F3F7F7FBF9F9E9F3F7F3F1FCFA0
:1001A000CFDF9F3F7F7F3FCFC7C7C78F0F8FEDC97F
:1001B000C18181010080C0E0F0F0E080000000001B
:1001C000000000000000000000000000000000002F
:1001D000000000000000000080FCFFFFFFFFFFFFA9
:1001E000FFFFFFFFFFFFFFFFFFFFFFFFFFFFFFFF1F
:1001F000FFFFFFFFFFFFFFFFFFFFFFFFF7F7FFFF1F
:10020000FFFFFFFFFFFFFFFFFFFFFFFFFFFFFFFEFF
:10021000FFFFFFFFFFDEDFFFFFFFFFFFFEFEFFFF31
:10022000FFFFFF7F7FFEFFFFFFFFFFFFFFFFFFFFDF
:10023000FFFFFFFFFFFFFFFFFFFFFFFFFEFCFCFCD8
:10024000FEFEFEFADECFC3C0C0C0C0C0C04000008A
:100250000000000000000000010F1F7F7F7F7F7FF4
:100260007F7F7F7F3F1F0101030F1D333363FFC774
:100270008F8F0F0F0FFF9F1F1F1F1F1F7FFF1F3F1E
:100280003F3F3F7FFFBFFFFFFFFFFFFFFFFFFFFF7E
:10029000FFFFFFFFFFFFFFFFFFFFFFFFFFDFDF9F0E
:1002A0009F0F0F0F0F07C7DF7FFFFFFFFFFFFFFF4E
:1002B000FFFFFFFFFFFFFFFFFBFDFDFDF1F97B7F70
:1002C0007F7FFFFFFFFFFFFFFFFBF9F15070702002
:1002D000000000000000000000000000000000001E
:1002E000000000000000000000000000000000000E
:1002F00000010101030303020606040404050706C6
:100300000404040E1F3F3F3F3F3F3F3F3F3F3F3FFF
:100310003F1F1F0F070F1F3F7F7F7F7F7F7F7F7FE5
:100320003F3F3E1C00000003030303073F7FFFFF26
:10033000FF7FFFFFFFFFFFFFFFFFFFFFFEFEFEFE51
:100340007E7C7E3F1F1F07010100000000000000AF
:10035000000000000000000000000000000000009D
:10036000000000000000000000000000000000008D
:10037000000000000000000000000000000000007D
:10038000000000000000000000000000000000006D
:10039000000000000000000000000000000000005D
:1003A000000000000000000000000000000000004D
:1003B000000000000000000000000000000000003D
:1003C000000000000000000000000000000000002D
:1003D000000000000000000000000000000000001D
:1003E000000000000000000000000000000000000D
:1003F00000000000000000000000000000000000FD
:1004000000000000000000000000000000000000EC
:1004100000000000000000000000000000000000DC
:1004200000000000000000000000000000000000CC
:1004300000000000000000000000000000000000BC
:1004400000000000000000000000000000000000AC
:10045000000000000000000000000000000000009C
:10046000000000000000000000000000000000008C
:10047000000000000000000000000000000000007C
:10048000000000000000000000000000000000006C
:10049000000000000000000000000000000000005C
:1004A000000000000000000000000000000000004C
:1004B000000000000000000000000000000000003C
:1004C000000000000000000000000000000000002C
:1004D000000000000000000000000000000000001C
:1004E0000000000080E0E0F0F0F0F8F8F8F8F8F82C
:1004F000F8FCFCFCFCF8F8F8F8F8F8F87878F8F86C
:10050000F8F8F8F8F0F0F0F0F0F0F0F0E0E0E0E00B
:10051000E0E0E0E0E0E0E0E0E0E0E0E0E0E0E0C0FB
:10052000C0C0C0C0C0C0808080800000000000004B
:1005300000000000008080C0C040406020202020DB
:1005400020202020206060C080000000000000000B
:10055000000000000000000000000000000000009B
:100560000000E0FBFFFFFF7F3F1FFF0F0F1F1F1F5C
:100570001F3F3F3F7F7FFFFFFFFFFFFFFCF8F1E3DF
:10058000C3C78FDF7F3F3F7FFFFFFFFFFFFFFFFFFF
:10059000FFFF7F1F0F0F0F0B0F0FCFE7E7FFFFFFCF
:1005A000FFFFFFFFFFFFFFFFFFFFFDFFFFFEFEFE60
:1005B000FCFEFAF3C1810000000000000080808092
:1005C000808080C0404060301F06000000000000B6
:1005D0000000000000000000E0E0F0B0909098986B
:1005E00088888F8F8F8F878484F41F00000000001D
:1005F00000000000000000000000010101010103F3
:100600000703030272D2B2FEFEFEC363277FFF3FE1
:100610003F03000040C0E0C0C0000303030303FF2A
:10062000FFFFFDFFFFFFFFFFFFFFFFFFFFFFFFFFDC
:10063000FFFFFFFFFFFFFF01018181818181818138
:10064000808080808080800000000000000000002A
:1006500000000000000000000C3D7D75454544444D
:1006600044C4C787878784E40700000000000000B7
:1006700000000000000000000000000000000080FA
:1006800080808080809ED25F5E7F7B62C6C7FFFED7
:10069000FEFCE0800000000000000030F8F8F8FBED
:1006A000FFFFFFFFFFFFFFFFFFFFFFFFFFFFFFFF5A
:1006B000FFFFFFFFFFFF9F0101010101000000009C
:1006C0000000000000010101010386FC00000000A1
:1006D000000000000000000000000000000000001A
:1006E0000000070F1F1F3F3F3E7E7E7C7C7C7C7C92
:1006F000FCFCF8F8F8FCFCFCFCFEFEFFFFFFFFFF33
:10070000FF7F7FFFFE7C7C78787C7E7F7F7F7F7F92
:100710007F7F7F7F7F7E7E7C7C7C7C7C7C7C7C7D05
:100720007F7F7F7F7F7F7F3F3F3F3F1F1F1B0F0FDD
:100730000707030100000101010303020202020294
:100740000600000202020203030101000000000093
:100750000000000000000000000000000000000099
:100760000000000000000000000000000000000089
:100770000000000000000000000000000006070D5F
:1007800018181E0300000000000000000000000018
:100790000000000000000000000000000000000059
:1007A000000000000000000000000003070E0C180D
:1007B00018103020200000E0E0C0808080C0C0C061
:1007C0000000000000000000000000000000000029
:1007D0000000000000000000000000000000000019
:1007E0000000000000000000000000000000000009
:1007F00000000000000000000000000000000000F9
:1008000000000000000000000000000000000000E8
:1008100000000000000000000000000000000000D8
:1008200000000000000000000000000000000000C8
:1008300000000000000000000101000000000307AC
:1008400007000000000000000000000000000000A1
:100850000000000000000000000000000000000098
:100860000000000000000000000000000000000088
:100870000000000000000000000000000000000078
:100880000000000000000000000000000000000068
:100890000000000000000000000000000000000058
:1008A0000000000000000000000000000000000048
:1008B0000000000000000000000000000000000038
:1008C0000000000000000000000000000000000028
:1008D0000000000000000000000000000000000018
:1008E0000000000000000000000000000000000008
:1008F00000000000000000000000000000000000F8
:10090000000000000000000000000080C8D87070E7
:1009100060643C3C78701010181818383838181873
:100920001818387070303030303020606040C0C0EF
:10093000C0C0C0C0C0C0C0C0C0C0C0C080808080B7
:100940008000000000000000000000000000000027
:100950000000000000000000000000000000000097
:1009600000000080C0C0602030301010101818182F
:1009700008080818383878783818183870F0F07087
:1009800030302060E0E070380E0603010100000006
:100990000060F0F8FCFCFCFEFEFEFEFEFEEEECFC51
:1009A000FCFCF8F000000000302000000000000017
:1009B0000001030307070F1D193161C1818183C342
:1009C000C3633F9FC7E6761C0000000000000000E4
:1009D0000000000000000000000000000000000017
:1009E000E0F0BF9F919898181818080000000000C8
:1009F00000000000000000000000000000000000F7
:100A000000000000FF0700000000000000000000E0
:100A1000000001C1E3030707870707070707070768
:100A200003030100000000000000000000000000BF
:100A3000000000000000000000000000030F3FFE67
:100A4000C6030301000000000000000000000000D9
:100A50000000000000000000000000000000000096
:100A6000183FE7E56567474747474000000000003B
:100A70000000000000000000000000000000000076
:100A800000000000FFE00000000000000000000087
:100A90000000000F8F898083C3C3C0C0C0808080E6
:100AA00080000000000000000000000000000000C6
:100AB0000000000000000000000000000000E0FF57
:100AC0001F00000000000000000000000000000007
:100AD0000000000000000000000000000000000016
:100AE000000003070E1C1810302060E0E0C0C0407A
:100AF000C0C0C04070505070604040707868383856
:100B000030303010181F1E78E0C080000000000058
:100B100000083E7F7F7FFFFFFFFFFFFFFDFDFDFF22
:100B20007F7F3F1E00000000000C0000000000005E
:100B3000000000008080C0406030381C0E070F0F9E
:100B40001B3236ECDCB870E0C00000000000000092
:100B50000000000000000000000000000000000095
:100B60000000000000000000000000010307070F64
:100B70000F1D1F1312323626263E2626223E36220F
:100B800022363E1C000000000001030336361C1C08
:100B90000E1E58707C3C3030302020202020202039
:100BA0002020203030301010101818080C0C040EC3
:100BB0000E0F0B0B0B0B0E0E0E0E0E0E0E06060678
:100BC0000707070303030101000000000000000005
:100BD0000000000000000000000000000000000015
:100BE0000000000000000000000000000000000005
:100BF00000000000000000000000000000000000F5
:100C000000000000000000000000000000000000E4
:100C100000000000000000000000000000000000D4
:100C200000000000000000000000000000000000C4
:100C300000000000000000000000000000000000B4
:100C400000000000000000000000000000000000A4
:100C50000000000000000000000000000000000094
:100C60000000000000000000000000000000000084
:100C70000000000000000000000000000000000074
:100C80000000000000000000000000000000000064
:100C90000000000000000000000000000000000054
:100CA0000000000000000000000000000000000044
:100CB0000000000000000000000000000000000034
:100CC0000000000000000000000000000000000024
:100CD0000000000000000000000000000000008094
:100CE0008080808080808080808080800000000004
:100CF000000080C0C0C0C0C0C0C0C0C0C0C0808034
:100D0000000000000000000000000000008080C023
:100D1000C06060203030101018180808080C0C0C47
:100D2000040404040404848484848404040C0C0CEB
:100D30000808080818181038383878787CFCFCFC4B
:100D4000FCFCFCFCFCFCFCF8F8F8F8F8F0F0F0E037
:100D5000E0C080800000F0F8BC1E0E0F07070703FC
:100D6000030303030303070707070F1FBFFFFFFF6B
:100D7000FEFFFFFFFFFF7F7FFFFFFFFFFFFFFFFF84
:100D8000FFFFFFFEFE7C3C180C060603010100007D
:100D9000000000000070F0F8F8FCFCFCFEFEFEFE17
:100DA000FFFFFFFFFFFFFFFFFFFFFFFFFFFFFFFF53
:100DB000FEFEFCFCF8F0E0E0800000000000000116
:100DC000010307070F1F3F7FFFFFFFFFFFFFFFFF2D
:100DD000FFFF7F3F0000010307C7FEFEFC3C1C1C19
:100DE0001818181838383C3C1C1E1E1F1F1F1F0FD8
:100DF0000F0F0703030000000000000101010303BF
:100E0000E3FF0F03000000000000000000000000EE
:100E1000E0F03030100081C3C3E7E7C7C78F0F0F82
:100E20000F0F0F0F1F1F1F1F1F1F1F1F1F1F1F1F12
:100E30001F1F1F1F1F1F0F0F0703000000000000D0
:100E4000000000000000000000030FFFF303010199
:100E50000000000000000000008FBFFFFFF0E0E096
:100E6000E0E0E0E0E0E0E0E0E0E0E0E0E0E0C0C0C2
:100E7000C0808000000000000000000000000000B2
:100E80000F7FF0C000000000000000000000000024
:100E90000F1F191111010387CFCFCFEDE7E3E0E07A
:100EA000E0F0F0F0F0F0F0F0F0F0F0F0F878F8F8B2
:100EB000F0F0F0F0F0F0F0E0E0C000000000000022
:100EC00000000000000000000080E0FF9F00000024
:100ED0000000000000007EFFE7C3838101010000E5
:100EE0000000000000000001018183C3E7FFFFFF55
:100EF000FFFFFFFFFFFCF0F8F8FCFCFEFEFEFFFF2B
:100F0000FFFFFFFFFFFEFCF87060C0C08000000024
:100F100000000000000E1F1F3F3F7F7F7F7FFFFF0D
:100F2000FFFFFFFFFFFFFFFFFFFFFFFFFFFFFFFFD1
:100F3000FF7F7F3F3F1F0F070300000000000000FE
:100F40008080C0E0F0F0F8FCFFFFFFFFFFFFFFFF35
:100F5000FEFEFCF80000000000010103030303078C
:100F6000070707070707070707070707070303031D
:100F70000301030707070F0F0F0F070707070703F3
:100F80000303010101000000000000000101030251
:100F90000606040C0C0818181010303030202020E1
:100FA00020216161616161616161612121212020F4
:100FB0002030301010183838383C7C7C7E7E7F7FA3
:100FC0007F7F7F7F7F7F7F7F7F3F3F3F3F1F1F1F51
:100FD0000F070703000000000000000000000000F1
:100FE0000000000000000000000000000000000001
:100FF00000000000000000000000000000000000F1
:1010000000000000000000000000000000000000E0
:1010100000000000000000000000000000000000D0
:1010200000000000000000000000000000000000C0
:1010300000000000000000000000000000000000B0
:1010400000000000000000000000000000000000A0
:101050000000000000000000000000000000000090
:101060000000000000000000000000000000000080
:101070000000000000000000000000000000000070
:1010800000103060C0C080808000000000000000C0
:101090000000000000000000000000000000000050
:1010A0000000000000000000000000000000000040
:1010B0000000000000000000000000000000000030
:1010C0000000000000000000000000000000000020
:1010D0000000000009191131212222624242848459
:1010E000040C8888889890B0F0F0F0E06060606050
:1010F000606060606040C0C0C0C0E0E0E0E0E0F080
:10110000F0F0F0F8F8F8F8F9F9F9FBFBFBFAFAFA65
:10111000FAFEFEFEFEFEEEEEFEBEBEBEBEBEBEBED3
:10112000BEBEBFBFBEBEBEBEFEFEFEFEFEFEFEFEDD
:10113000FCFCFCFCFCFCFCFCF8F8F8F8F8F8F0F01F
:10114000F0F0E0E0E0E0C0C08080000000000000BF
:10115000000000006020200020404040808080008F
:10116000000000000000000000000000000000007F
:10117000008080000080C08090C8DC5A5E3C36371A
:101180003F171F1F1F8FAFDFDFFFFFDFFFFFF7FFDF
:10119000FF9F9FDF5FFFFFEFEFBFFFFFFFFFFFFF3F
:1011A000FFFB79792929098989898989898D9F9FF7
:1011B0009F9F9F9FFFFFFFFFFFFFFFFFFFFFFFFFBF
:1011C000FFFFFFFFFFFFFFFFFFFFFFFFFEFEFCFC37
:1011D000F8F0E0C0020202060404040C2818080912
:1011E000090B0A0A0A0A0C1C14141C18181858783F
:1011F00068A8F919050303010000000000000000C1
:101200000000000003000400070707070F0F07276F
:1012100023A686737B1B3A2B3FFFF7FFFFFFFFFFE1
:10122000FFFFC58587830383818191918181C9D91E
:10123000FFFFFFFFFFFFFFFFFFFFFFFFFFFFFFFFBE
:10124000FFFFFFFFFFFFFFFFFFFFFFFFFFFFFFFFAE
:10125000FFFFFFFF00000000000000000000000092
:10126000000000010100000000000000000000007C
:101270003E2360C08080000002033E30000000007A
:101280000000000000000000000000000000828A52
:101290008BFAF2F2F2FBFBFBFBFF7F7F7F7F7FFF8E
:1012A000FFFFBFFFFFFBFFF9F9F9F99898989888BD
:1012B00088C8C8C8EFEFFFFFFFFFFFFFFFFFFFFF7A
:1012C000FFFFFFFFFFFFFFFFFFFFFFFFFFFFFFFF2E
:1012D000FFFFFFFF00000000000000000000000012
:1012E000000000808000008080404040404040403E
:1012F000404040E0F4FDFFFEFEFCFCF8F8F0F0F0AA
:10130000E0E0E0E0C0C0C0C0C0C0C0C040C7C9C8C5
:10131000CBCFCFCFCFEFEFEFFFFFFEFEEEFBFFFF18
:10132000FFFFFFFFFFFFFFFFFFFFFFFFFFF9C8C841
:10133000E8ECEFFFFFFFFFFFFFFFFFFFFFFFFFFFF7
:10134000FFFFFFFFFFFFFFFF7F7F7F3F1F1F0F0F8D
:10135000070703008080C0E06020301018180808DC
:1013600008080C0C0404040404060206060606869B
:10137000E77F5F5F7F7F7F7F3F3F3F3F3F3F3F3F55
:101380003F3F3F3F3F3F3F3F3F3F3F3D3D3D39397F
:101390003939393939393B3F3D3F3F3F3F3F3F3F87
:1013A0003F3F3F3F3F3F3F3F3F3F3F3F3F3F3F1F6D
:1013B0001F1F1F1F1F1F0F0F0F0F0F0F0F070707F5
:1013C000070303010101000000000000000000000D
:1013D00000000000222120202020202000000010FA
:1013E000101010101000080808080404020203017D
:1013F00000000000000000000000000000000000ED
:1014000000000000000000000000000000000000DC
:1014100000000000000000000000000000000000CC
:1014200000000000000000000000000000000000BC
:1014300000000000000000000000000000000000AC
:10144000000000000000000000000000000000009C
:101450000000000011241FBECFE5D4E0DEBFCDBFE9
:101460000E94B10B0C94180C0C94000080E1000059
:101470008150E9F7089584B38F6184BBAA988FEFF8
:1014800081BB85E38A95F1F7000012BA85E38A955E
:10149000F1F70000089584B38F6184BBAA9811BA54
:1014A00085E38A95F1F700008FEF82BB85E38A958B
:1014B000F1F700000895CF93C82F0E943B0AC13076
:1014C00019F4AB98AC9A02C0AB9AAC9885E38A95B4
:1014D000F1F70000CF9108950E944B0AA898A99AAD
:1014E000AA9A0E94360AAA98879B08C0AA9A85E3FE
:1014F0008A95F1F70000AA988799F8CF0895CF93BD
:10150000C82F0E946C0A0E943B0AA898A998C25C46
:10151000C2BBAA9A85E38A95F1F70000AA98CF91F9
:101520000895CF93C82F0E946C0A0E943B0AA89886
:10153000A998C05CC2BBAA9A85E38A95F1F700001E
:10154000AA98CF910895CF93C82F0E946C0A0E9449
:101550003B0AA898A998C854C2BBAA9A85E38A9561
:10156000F1F70000AA98CF910895CF93C82F0E9459
:101570006C0A0E943B0AA898A99880E00E945B0A26
:10158000C054C2BBAA9A85E38A95F1F70000AA98D5
:1015900081E00E945B0AAA9AC2BB85E38A95F1F7B3
:1015A0000000AA98CF910895CF93C82F0E946C0A8B
:1015B0000E943B0AA89AA998C2BBAA9A85E38A9579
:1015C000F1F70000AA9885E38A95F1F70000CF9122
:1015D000089580E00E945B0A85E38A95F1F7000098
:1015E00081E00E947F0A85E38A95F1F7000080E0A0
:1015F0000E94910A85E38A95F1F7000080E00E943D
:10160000A30A85E38A95F1F7000080E00E94B50AFD
:1016100085E38A95F1F7000081E00E945B0A85E38B
:101620008A95F1F7000081E00E947F0A85E38A95A0
:10163000F1F7000080E00E94910A85E38A95F1F7B6
:10164000000080E00E94A30A85E38A95F1F700007C
:1016500080E00E94B50A85E38A95F1F700000895BD
:101660001F93CF93DF93182FD62FC62FC295C69501
:10167000C695C3708C2F0E945B0A8D2F90E4C99F82
:10168000801911240E94910A8AE18A95F1F700C01D
:10169000812F0E94A30ADF91CF911F910895CF93CC
:1016A000DF93D0E060E08D2F0E94300BC0E480E03B
:1016B0000E94D40AC150D9F78AE18A95F1F700C097
:1016C000DF5FD83079F7D0E060E48D2F0E94300BD7
:1016D000C0E480E00E94D40AC150D9F78AE18A951B
:1016E000F1F700C0DF5FD83079F7DF91CF9108952F
:1016F000DF92EF92FF920F931F93CF93DF938C01B2
:10170000005C1F4FD12C60E08D2D0E94300BE80152
:10171000C054D109FE0184910E94D40A21960C176D
:101720001D07C1F760E48D2D0E94300B7801F0E4B5
:10173000EF0EF11CE801FE0184910E94D40A21966B
:10174000CE15DF05C1F7D39400581F4FF8E0DF1224
:10175000DACFDF91CF911F910F91FF90EF90DF9043
:101760000895D0980E94E90A0E944F0B84E590E109
:101770000E94780BC89903C0C89BFECF09C08FE3B5
:101780009CE90197F1F700C00000C899F8CFF4CFA9
:101790000E944F0B84E59CE00E94780BC89903C01F
:1017A000C89BFECF09C08FE39CE90197F1F700C009
:1017B0000000C899F8CFF4CF0E944F0B84E598E061
:1017C0000E94780BC89903C0C89BFECF09C08FE365
:1017D0009CE90197F1F700C00000C899F8CFF4CF59
:1017E0000E944F0B84E594E00E94780BC89903C0D7
:1017F000C89BFECF09C08FE39CE90197F1F700C0B9
:101800000000C899F8CFF4CF0E944F0B84E590E018
:101810000E94780BC89903C0C89BFECFA5CF8FE369
:101820009CE90197F1F700C00000C899F8CFF4CF08
:04183000F894FFCF5A
:00000001FF
