S0100000444B44435F4153372E73726563D4
S11300000C942A000C943F000C943F000C943F0085
S11300100C943F000C94D0030C943F000C943F00CC
S11300200C943F000C943F000C943F000C943F0050
S11300300C943F000C943F000C943F000C943F0040
S11300400C943F000C943F000C943F000C943F0030
S11300500C943F0011241FBECFE5D4E0DEBFCDBF1A
S113006010E0A0E6B0E0EAEBF1E102C005900D92E9
S1130070A437B107D9F70E94BD020C94DB080C9495
S11300800000672B09F09FC0009711F4D8980895D9
S11300908130910511F4D99808958230910511F4B5
S11300A0DA9808958330910511F4DB98089584302B
S11300B0910511F4DC9808958530910511F4DD98CB
S11300C008958630910511F4DE98089587309105DE
S11300D011F4DF9808958A30910511F4C0980895B9
S11300E08B30910511F4C19808958C30910511F469
S11300F0C29808958D30910511F4C39808958E30F7
S1130100910511F4C49808958F30910511F4C598A0
S113011008958031910511F4C698089581319105AF
S113012011F4C79808958431910511F4A89808959D
S11301308531910511F4A99808958631910511F43A
S1130140AA9808958731910511F4AB9808958831E0
S1130150910511F4AC9808958931910511F4AD9885
S113016008958A31910511F4AE9808958B31910563
S113017011F4AF9808958E31910511F49098089573
S11301808F31910511F4919808958032910511F4FD
S1130190929808958132910511F4939808958232CA
S11301A0910511F4949808958332910511F495986A
S11301B008958432910511F496980895859709F06D
S11301C09FC097980895009711F4D89A08958130A4
S11301D0910511F4D99A08958230910511F4DA9AAF
S11301E008958330910511F4DB9A089584309105C4
S11301F011F4DC9A08958530910511F4DD9A08957F
S11302008630910511F4DE9A08958730910511F432
S1130210DF9A08958A30910511F4C09A08958B30BD
S1130220910511F4C19A08958C30910511F4C29A84
S113023008958D30910511F4C39A08958E30910577
S113024011F4C49A08958F30910511F4C59A089554
S11302508031910511F4C69A08958131910511F404
S1130260C79A08958431910511F4A89A08958531A7
S1130270910511F4A99A08958631910511F4AA9A69
S113028008958731910511F4AB9A08958831910549
S113029011F4AC9A08958931910511F4AD9A089539
S11302A08A31910511F4AE9A08958B31910511F4B8
S11302B0AF9A08958E31910511F4909A08958F3173
S11302C0910511F4919A08958032910511F4929A4E
S11302D008958132910511F4939A0895823291051B
S11302E011F4949A08958332910511F4959A08951E
S11302F08432910511F4969A0895859709F4979A92
S11303000895CF93C82F80FF07C061E070E086E1B5
S113031090E00E94410006C060E070E086E190E059
S11303200E944100C1FF07C061E070E087E190E0F6
S11303300E94410006C060E070E087E190E00E9406
S11303404100C2FF07C061E070E088E190E00E94D4
S1130350410006C060E070E088E190E00E94410046
S1130360C3FF07C061E070E089E190E00E944100B2
S113037006C060E070E089E190E00E944100CF9106
S11303800895CF93C82F60E070E084E190E00E946C
S113039041008C2F0E94810161E070E085E190E0D2
S11303A00E9441008FE99FE00197F1F700C000002F
S11303B060E070E085E190E00E9441008FE99FE0F9
S11303C00197F1F700C00000CF910895CF93C62F95
S11303D0813059F480E8860F82958F700E94C101A4
S11303E08C2F8F700E94C1010CC0823051F480ECBC
S11303F0860F82958F700E94C1018C2F8F700E948E
S1130400C101CF91089580E00E9481012FEF89EF0F
S113041090E0215080409040E1F700C0000083E06C
S11304200E94C1018FE19EE40197F1F700C0000032
S113043083E00E94C1018FED9BEA0197F1F700C0B0
S1130440000083E00E94C10182E00E94C10182E0B9
S11304500E94C10188E00E94C10180E00E94C101A4
S11304608CE00E94C10180E00E94C10186E00E94EC
S1130470C1010895CF93C82F61E070E084E190E05A
S11304800E9441008C2F82958F700E94810161E04F
S113049070E085E190E00E9441008FE99FE00197C0
S11304A0F1F700C0000060E070E085E190E00E9498
S11304B041008FE99FE00197F1F700C000008C2F05
S11304C08F700E94810161E070E085E190E00E94FC
S11304D041008FE99FE00197F1F700C0000060E060
S11304E070E085E190E00E9441008FE99FE0019770
S11304F0F1F700C00000CF910895CF93DF93EC0192
S11305008881882331F021960E943A0289918111D1
S1130510FBCFDF91CF9108953E9A86B1866886B964
S1130520089597B1892B87B985E38A95F1F700007F
S1130530369A349A84B195B1089513BE83B78D6603
S113054083BF089520E030E0382F369527953695FF
S11305502795ABE7B4E10E94E205969587958CBF99
S113056008958E9896981DBC1CBC1FBC8EB58464DF
S11305708EBD89B7806289BF0895CF93DF9300D081
S113058000D01F92CDB7DEB7BB9A8FEF84BBD09853
S11305900E948C020E9403020E949D020E94B102EA
S11305A060E875E280E090E00E94DC03789480E6E5
S11305B090E00E947D0260E082E00E94E60187E60E
S11305C090E00E947D020F2EF0E72F2EF0E03F2EE8
S11305D0F02D8E010F5F1F4F80E00E9491029C015D
S11305E0A4E6B0E00E94E2052B013C014B015C0152
S11305F0072E7AE0B694A794979487947A95D1F7C6
S1130600702D66B577B5CB01A0E0B0E06627782FF2
S1130610892F9A2F0E94C50420E030E040E85DE372
S11306200E94530520E030E040EC51E40E94530561
S11306309B01AC0160EC71EE84E69CE40E9424040E
S11306400E9496046B017C016A3071058105910555
S113065020F4C12CD12CE12CF12CDF92CF923F92CB
S11306602F921F930F930E94F105C8010E940E045C
S11306708FE39CE90197F1F700C0000087E50E9431
S11306800A04C4010E94A20266E081E00E94E6011D
S1130690C301B20120E030E941E050E00E94C0050E
S11306A080E3820F0E943A02C501B40124E630E0DF
S11306B040E050E00E94C0052AE030E040E050E015
S11306C00E94C00580E3820F0E943A02C501B40172
S11306D02AE030E040E050E00E94C00580E3860F4D
S11306E00E943A0269E082E00E94E601C701B60175
S11306F020E137E240E050E00E94C0054B015C017C
S113070080E3820F0E943A02C501B40128EE33E06F
S113071040E050E00E94C00580E3820F0E943A024C
S1130720C701B60128EE33E040E050E00E94C00566
S113073024E630E040E050E00E94C00580E3820FF0
S11307400E943A02C701B60124E630E040E050E0DE
S11307500E94C0052AE030E040E050E00E94C0055D
S113076080E3820F0E943A02C701B6012AE030E01A
S113077040E050E00E94C00580E3860F0E943A02E8
S11307809FEF21EE84E0915020408040E1F700C0CB
S113079000000F900F900F900F900F900F901CCFB0
S11307A01F920F920FB60F9211241DBC1CBC0F9008
S11307B00FBE0F901F9018952AB128692AB920B549
S11307C0266820BDDC01CB01880F991FAA1FBB1F1F
S11307D0880F991FAA1FBB1F9C01AD01220F331F55
S11307E0441F551F220F331F441F551F60E074E23E
S11307F084EF90E00E94C0058FEF820F89B9DA017F
S1130800C9010197A109B109892F9A2FAB2FBB27E1
S113081080BD08955D9BFECF8CB908950F931F93FF
S1130820CF93FC018081882359F08F01C0E00E949E
S11308300A04CF5FF801EC0FF11D80818111F7CF1D
S1130840CF911F910F9108950E9438040C941905BB
S11308500E94120558F00E940B0540F029F45F3FF6
S113086029F00C94020551110C944D050C940805C3
S11308700E942A0568F39923B1F3552391F3951B3C
S1130880550BBB27AA2762177307840738F09F5FAD
S11308905F4F220F331F441FAA1FA9F335D00E2E1A
S11308A03AF0E0E832D091505040E695001CCAF787
S11308B02BD0FE2F29D0660F771F881FBB1F26174A
S11308C037074807AB07B0E809F0BB0B802DBF0121
S11308D0FF2793585F4F3AF09E3F510578F00C94F0
S11308E002050C944D055F3FE4F3983ED4F38695DE
S11308F077956795B795F7959F5FC9F7880F911D11
S11309009695879597F90895E1E0660F771F881FFC
S1130910BB1F621773078407BA0720F0621B730BAF
S1130920840BBA0BEE1F88F7E09508950E943205F8
S113093088F09F5798F0B92F9927B751B0F0E1F09C
S1130940660F771F881F991F1AF0BA95C9F714C04C
S1130950B13091F00E944C05B1E008950C944C051F
S1130960672F782F8827B85F39F0B93FCCF3869585
S113097077956795B395D9F73EF4909580957095E2
S113098061957F4F8F4F9F4F0895E89409C097FB5F
S11309903EF490958095709561957F4F8F4F9F4F52
S11309A09923A9F0F92F96E9BB279395F695879596
S11309B077956795B795F111F8CFFAF4BB0F11F459
S11309C060FF1BC06F5F7F4F8F4F9F4F16C0882300
S11309D011F096E911C0772321F09EE8872F762F36
S11309E005C0662371F096E8862F70E060E02AF077
S11309F09A95660F771F881FDAF7880F9695879563
S1130A0097F9089597F99F6780E870E060E008958A
S1130A109FEF80EC089500240A9416161706180612
S1130A200906089500240A941216130614060506EE
S1130A300895092E0394000C11F4882352F0BB0F7F
S1130A4040F4BF2B11F460FF04C06F5F7F4F8F4FE2
S1130A509F4F089557FD9058440F551F59F05F3F1D
S1130A6071F04795880F97FB991F61F09F3F79F0CC
S1130A7087950895121613061406551FF2CF46954E
S1130A80F1DF08C0161617061806991FF1CF8695D0
S1130A907105610508940895E894BB2766277727B4
S1130AA0CB0197F908950E9466050C9419050E94DC
S1130AB00B0538F00E94120520F0952311F00C94D8
S1130AC002050C94080511240C944D050E942A0576
S1130AD070F3959FC1F3950F50E0551F629FF0018D
S1130AE0729FBB27F00DB11D639FAA27F00DB11DA6
S1130AF0AA1F649F6627B00DA11D661F829F22272F
S1130B00B00DA11D621F739FB00DA11D621F839FB5
S1130B10A00D611D221F749F3327A00D611D231F8B
S1130B20849F600D211D822F762F6A2F11249F57D9
S1130B3050409AF0F1F088234AF0EE0FFF1FBB1FDC
S1130B40661F771F881F91505040A9F79E3F51059B
S1130B5080F00C9402050C944D055F3FE4F3983E3D
S1130B60D4F3869577956795B795F795E7959F5F45
S1130B70C1F7FE2B880F911D9695879597F90895D7
S1130B80A1E21A2EAA1BBB1BFD010DC0AA1FBB1F8D
S1130B90EE1FFF1FA217B307E407F50720F0A21BFF
S1130BA0B30BE40BF50B661F771F881F991F1A946C
S1130BB069F760957095809590959B01AC01BD0196
S1130BC0CF010895A29FB001B39FC001A39F700DF0
S1130BD0811D1124911DB29F700D811D1124911D41
S1130BE00895AEE0B0E0E7EFF5E00C94B2080D89AB
S1130BF01E8986E08C831A8309838FEF9FE79E8387
S1130C008D83AE01475E5F4F6F89788DCE0101966B
S1130C100E941306EF81F885E00FF11F10822E96D3
S1130C20E4E00C94CE08ABE0B0E0E9E1F6E00C942B
S1130C30A4086C017B018A01FC011782168283815E
S1130C4081FFCCC1CE0101963C01F6019381F701ED
S1130C5093FD859193FF81917F01882309F4BAC1A3
S1130C60853239F493FD859193FF81917F0185321B
S1130C7029F4B60190E00E940A08E7CF912C212CB8
S1130C80312CFFE1F315D8F08B3279F038F480324F
S1130C9079F08332A1F4232D20611DC08D3261F0DF
S1130CA0803369F4232D216016C0832D8260382E91
S1130CB0E32DE4603E2E2AC0F32DF8601DC037FCFE
S1130CC02DC020ED280F2A3040F08E32B9F436FCC6
S1130CD081C1232D2064322E19C036FE06C08AE05D
S1130CE0989E200D1124922E11C0EAE02E9E200D14
S1130CF01124222EF32DF0623F2E08C08C3621F4ED
S1130D00832D8068382E02C0883641F4F70193FDA4
S1130D10859193FF81917F018111B3CF982F9F7D9E
S1130D209554933028F40C5F1F4F9FE399830DC0B3
S1130D30833631F0833771F0833509F059C021C00F
S1130D40F801808189830E5F1F4F88248394912C3E
S1130D50530113C02801F2E04F0E511CF801A0808A
S1130D60B18036FE03C0692D70E002C06FEF7FEFE3
S1130D70C5010E94FF074C018201F32DFF773F2E2E
S1130D8016C0280122E0420E511CF801A080B18057
S1130D9036FE03C0692D70E002C06FEF7FEFC5011E
S1130DA00E94F4074C01F32DF0683F2E820133FCBE
S1130DB01BC0822D90E088169906B0F4B60180E23B
S1130DC090E00E940A082A94F4CFF50137FC85913B
S1130DD037FE81915F01B60190E00E940A0821105C
S1130DE02A9421E0821A91088114910471F7E8C0D1
S1130DF0843611F0893641F5F80137FE07C0608169
S1130E007181828193810C5F1F4F08C06081718161
S1130E10072E000C880B990B0E5F1F4FF32DFF76E6
S1130E203F2E97FF09C090958095709561957F4FEF
S1130E308F4F9F4FF0683F2E2AE030E0A3010E94BD
S1130E404608882E861845C0853731F4232D2F7E19
S1130E50B22E2AE030E025C0932D997FB92E8F362B
S1130E60C1F018F4883579F0B5C0803719F08837A7
S1130E7021F0B0C0E92FE061BE2EB4FE0DC0FB2D01
S1130E80F460BF2E09C034FE0AC0292F2660B22E9A
S1130E9006C028E030E005C020E130E002C020E1D7
S1130EA032E0F801B7FE07C06081718182819381CD
S1130EB00C5F1F4F06C06081718180E090E00E5F7F
S1130EC01F4FA3010E944608882E8618FB2DFF772A
S1130ED03F2E36FE0DC0232D2E7FA22E891458F4EA
S1130EE034FE0BC032FC09C0832D8E7EA82E05C0B3
S1130EF0B82CA32C03C0B82C01C0B92CA4FE0FC07D
S1130F00FE01E80DF11D8081803321F49A2D997E34
S1130F10A92E09C0A2FE06C0B394B39404C08A2DBE
S1130F20867809F0B394A3FC11C0A0FE06C0B214E5
S1130F3088F4280C922C9B180EC0B21460F4B601ED
S1130F4080E290E00E940A08B394F7CFB21418F438
S1130F502B1802C0982C212CA4FE10C0B60180E3EB
S1130F6090E00E940A08A2FE17C0A1FC03C088E713
S1130F7090E002C088E590E0B6010CC08A2D867826
S1130F8059F0A1FE02C08BE201C080E2A7FC8DE211
S1130F90B60190E00E940A08891438F4B60180E38F
S1130FA090E00E940A089A94F7CF8A94F301E80D1E
S1130FB0F11D8081B60190E00E940A088110F5CFEE
S1130FC0222009F442CEB60180E290E00E940A0891
S1130FD02A94F6CFF6018681978102C08FEF9FEFA6
S1130FE02B96E2E10C94C008FC010590615070401E
S1130FF00110D8F7809590958E0F9F1F0895FC01DE
S11310006150704001900110D8F7809590958E0F33
S11310109F1F08950F931F93CF93DF93FB012381A9
S113102021FD03C08FEF9FEF2CC022FF16C0468125
S11310305781248135814217530744F4A081B1813B
S11310409D012F5F3F4F318320838C93268137810D
S11310502F5F3F4F3783268314C08B01EC01FB01C4
S11310600084F185E02D0995892BE1F6D8011696C7
S11310708D919C911797019617969C938E93169732
S1131080CE01DF91CF911F910F910895FA01AA2704
S1131090283051F1203181F1E8946F936E7F6E5FB7
S11310A07F4F8F4F9F4FAF4FB1E03ED0B4E03CD065
S11310B0670F781F891F9A1FA11D680F791F8A1F48
S11310C0911DA11D6A0F711D811D911DA11D20D0AF
S11310D009F468943F912AE0269F11243019305D69
S11310E03193DEF6CF010895462F4770405D41935A
S11310F0B3E00FD0C9F7F6CF462F4F70405D4A33A7
S113110018F0495D31FD4052419302D0A9F7EACF6E
S1131110B4E0A6959795879577956795BA95C9F79D
S113112000976105710508959B01AC010A2E069490
S11311305795479537952795BA95C9F7620F731F49
S1131140841F951FA01D08952F923F924F925F9286
S11311506F927F928F929F92AF92BF92CF92DF92C3
S1131160EF92FF920F931F93CF93DF93CDB7DEB728
S1131170CA1BDB0B0FB6F894DEBF0FBECDBF0994BC
S11311802A88398848885F846E847D848C849B8413
S1131190AA84B984C884DF80EE80FD800C811B8121
S11311A0AA81B981CE0FD11D0FB6F894DEBF0FBE50
S10D11B0CDBFED010895F894FFCFC0
S11311BA447574793A2000546F6320646F3A2000AE
S10711CA2564000094
S9030000FC
