S00E000050574D5F487A2E7372656301
S11300000C942A000C9434000C9434000C943400A6
S11300100C9434000C9445000C9434000C9434007B
S11300200C9434000C9434000C9434000C9434007C
S11300300C9434000C9434000C9434000C9434006C
S11300400C9434000C9434000C9434000C9451003F
S11300500C94340011241FBECFE5D4E0DEBFCDBF25
S11300600E943D000C9469000C94000013BE88ECBF
S113007082BF83B7896683BF0895D09ABB9A0E94D2
S1130080360082ED8CBF7894FFCF1F920F920FB68B
S11300900F9211241DBC1CBC0F900FBE0F901F901B
S11300A018951F920F920FB60F9211248F939F935E
S11300B088EC90E09DBD8CBD82ED8CBF9BB381E04C
S11300C089278BBB9F918F910F900FBE0F901F902C
S10900D01895F894FFCF1F
S9030000FC
