S00D000048435F30352E73726563C8
S11300000C942A000C943C000C943C000C943C008E
S11300100C943C000C943C000C943C000C943C006C
S11300200C943C000C943C000C943C000C94470051
S11300300C943C000C943C000C943C000C943C004C
S11300400C943C000C943C000C943C000C943C003C
S11300500C943C0011241FBECFE5D4E0DEBFCDBF1D
S113006020E0A0E6B0E001C01D92A136B207E1F79E
S11300700E943E000C94C9000C940000B89A60E8F9
S113008075E280E090E00E9475007894FFCF1F92A3
S11300900F920FB60F9211242F933F934F935F93B8
S11300A06F937F938F939F93AF93BF93EF93FF933C
S11300B00E94A30080936000813309F4C09A809168
S11300C06000803309F4C098FF91EF91BF91AF9124
S11300D09F918F917F916F915F914F913F912F915C
S11300E00F900FBE0F901F9018952AB128692AB956
S11300F020B5266820BDDC01CB01880F991FAA1FFB
S1130100BB1F880F991FAA1FBB1F9C01AD01220FA3
S1130110331F441F551F220F331F441F551F60E018
S113012074E284EF90E00E94A7008FEF820F89B9F8
S1130130DA01C9010197A109B109892F9A2FAB2FBF
S1130140BB2780BD08955F9BFECF8CB10895A1E2CB
S11301501A2EAA1BBB1BFD010DC0AA1FBB1FEE1F3D
S1130160FF1FA217B307E407F50720F0A21BB30B88
S1130170E40BF50B661F771F881F991F1A9469F704
S113018060957095809590959B01AC01BD01CF0160
S10901900895F894FFCF6E
S9030000FC
