:100000000C942A000C9447000C9447000C94470071
:100010000C9447000C9447000C9447000C94470044
:100020000C9447000C9447000C9447000C94470034
:100030000C9447000C9447000C9447000C94470024
:100040000C9447000C9447000C9447000C94470014
:100050000C94470011241FBECFE5D4E0DEBFCDBF16
:1000600010E0A0E6B0E0E8ECFBE002C005900D92E5
:10007000A636B107D9F720E0A6E6B0E001C01D9290
:10008000A736B207E1F70E945D050C94E2050C94D7
:10009000000011B888E480B9089594EA96BF06B6C6
:1000A00007FEFDCF91B1987F903171F483B984E858
:1000B00086BF06B607FEFDCF81B1887F803431F060
:1000C000803231F083E0089580E0089581E0089562
:1000D00082E0089584E986BF06B604FCFDCF08954A
:1000E0001F93CF93DF93182FC4EAD4E8C6BF06B698
:1000F00007FEFDCF81B1887F8830C1F713B9D6BF25
:1001000006B607FEFDCF81B1887F883119F00E94C5
:100110006A00ECCFDF91CF911F91089583B984E8F5
:1001200086BF06B607FEFDCF81B1887F883221F0F9
:10013000803321F082E0089580E0089581E0089501
:1001400084EC86BF06B607FEFDCF83B1089584E830
:1001500086BF06B607FEFDCF83B10895672B09F071
:100160009FC0009711F4D89808958130910511F43B
:10017000D99808958230910511F4DA980895833062
:10018000910511F4DB9808958430910511F4DC9801
:1001900008958530910511F4DD9808958630910514
:1001A00011F4DE9808958730910511F4DF980895D1
:1001B0008A30910511F4C09808958B30910511F49F
:1001C000C19808958C30910511F4C29808958D302E
:1001D000910511F4C39808958E30910511F4C498D7
:1001E00008958F30910511F4C598089580319105D7
:1001F00011F4C69808958131910511F4C7980895B6
:100200008431910511F4A89808958531910511F470
:10021000A99808958631910511F4AA980895873117
:10022000910511F4AB9808958831910511F4AC98BB
:1002300008958931910511F4AD9808958A31910599
:1002400011F4AE9808958B31910511F4AF9808958B
:100250008E31910511F4909808958F31910511F424
:10026000919808958032910511F492980895813201
:10027000910511F4939808958232910511F49498A0
:1002800008958332910511F495980895843291056B
:1002900011F496980895859709F09FC0979808954E
:1002A000009711F4D89A08958130910511F4D99AE4
:1002B00008958230910511F4DA9A089583309105FA
:1002C00011F4DB9A08958430910511F4DC9A0895B5
:1002D0008530910511F4DD9A08958630910511F469
:1002E000DE9A08958730910511F4DF9A08958A30D7
:1002F000910511F4C09A08958B30910511F4C19ABB
:1003000008958C30910511F4C29A08958D309105AD
:1003100011F4C39A08958E30910511F4C49A08958A
:100320008F30910511F4C59A08958031910511F42B
:10033000C69A08958131910511F4C79A08958431C0
:10034000910511F4A89A08958531910511F4A99A9F
:1003500008958631910511F4AA9A0895873191057F
:1003600011F4AB9A08958831910511F4AC9A08956F
:100370008931910511F4AD9A08958A31910511F4EE
:10038000AE9A08958B31910511F4AF9A08958E318C
:10039000910511F4909A08958F31910511F4919A75
:1003A00008958032910511F4929A08958132910551
:1003B00011F4939A08958232910511F4949A089554
:1003C0008332910511F4959A08958432910511F4C0
:1003D000969A0895859709F4979A0895CF93C82F10
:1003E00080FF07C061E070E080E290E00E94AE0014
:1003F00006C060E070E080E290E00E94AE00C1FFC5
:1004000007C061E070E081E290E00E94AE0006C0AB
:1004100060E070E081E290E00E94AE00C2FF07C0A1
:1004200061E070E082E290E00E94AE0006C060E011
:1004300070E082E290E00E94AE00C3FF07C061E07E
:1004400070E083E290E00E94AE0006C060E070E0E1
:1004500083E290E00E94AE00CF910895CF93C82F21
:1004600060E070E08EE190E00E94AE008C2F0E9470
:10047000EE0161E070E08FE190E00E94AE008FE954
:100480009FE00197F1F700C0000060E070E08FE1AD
:1004900090E00E94AE008FE99FE00197F1F700C065
:1004A0000000CF910895CF93C62F813059F480E892
:1004B000860F82958F700E942E028C2F8F700E9463
:1004C0002E020CC0823051F480EC860F82958F7022
:1004D0000E942E028C2F8F700E942E02CF910895C1
:1004E00080E00E94EE012FEF89EF90E021508040E4
:1004F0009040E1F700C0000083E00E942E028FE1EF
:100500009EE40197F1F700C0000083E00E942E02F4
:100510008FED9BEA0197F1F700C0000083E00E9495
:100520002E0282E00E942E0282E00E942E0288E0CB
:100530000E942E0280E00E942E028CE00E942E0279
:1005400080E00E942E0286E00E942E020895CF9342
:10055000C82F61E070E08EE190E00E94AE008C2F29
:1005600082958F700E94EE0161E070E08FE190E073
:100570000E94AE008FE99FE00197F1F700C00000F4
:1005800060E070E08FE190E00E94AE008FE99FE0B4
:100590000197F1F700C000008C2F8F700E94EE01D0
:1005A00061E070E08FE190E00E94AE008FE99FE093
:1005B0000197F1F700C0000060E070E08FE190E08B
:1005C0000E94AE008FE99FE00197F1F700C00000A4
:1005D000CF910895CF93DF93EC018881882331F088
:1005E00021960E94A70289918111FBCFDF91CF91C3
:1005F00008956AE070E00E94BA0562957295707F76
:100600007627607F7627860F971F08959C01359582
:100610002795359527953595279535952795A901E2
:10062000440F551F220F331F220F331F220F331F7A
:10063000240F351F8F709927820F931F0895CF9332
:10064000DF93EC018A8190E00E94F9028A8389811C
:1006500090E00E94F90289838C8190E00E94F90267
:100660008C838D8190E00E94F9028D838E8190E0D1
:100670000E94F9028E8380ED0E94700080E00E944B
:100680008E0088810E948E0089810E948E008A815E
:100690000E948E008B810E948E008C810E948E00B1
:1006A0008D810E948E008E810E948E000E946A00C1
:1006B000DF91CF910895CF93DF93EC0180ED0E94FD
:1006C000700080E00E948E0081ED0E944D000E942B
:1006D000A00088830E94A00089830E94A0008A83D2
:1006E0000E94A0008B830E94A0008C830E94A00027
:1006F0008D830E94A7008E830E946A00888190E00B
:100700000E9406038883898190E00E940603898302
:100710008A8190E00E9406038A838B8190E00E9488
:1007200006038B838C8190E00E9406038C838D816D
:1007300090E00E9406038D838E8190E00E94060364
:100740008E83DF91CF910895C89B1CC0C99B1AC0AE
:10075000CA9910C00895EFE1FEE43197F1F700C0A7
:100760000000815079F0C89B0DC0C99B0BC0CA998D
:10077000F2CF08958FE19EE40197F1F700C00000E9
:100780008AE4F1CF0895FF920F931F93CF93DF93E5
:10079000082FF62EC42F17E6C99944C0CF5F809169
:1007A0006600811104C0C83174F0C0E00CC0813013
:1007B00021F4CC3374F0C0E00CC0823021F4C0329C
:1007C0006CF0C1E00BC0833021F4CD303CF0C1E0CF
:1007D00005C0843019F4C4360CF0C0E06F2D802FB2
:1007E0000E945302C102D12D1124D595D595C7FD84
:1007F000D39580E38D0F0E94A702DD0F8D2F880F08
:10080000880FD80F8C2F8D1B805D0E94A7022FEFC1
:1008100089E698E1215080409040E1F700C0000057
:10082000C99BBCCFCA9944C0C15080916600811158
:1008300004C0CC2374F4C7E10CC0813021F4CC2374
:1008400074F4CBE30CC0823021F41C166CF0CFE1C1
:100850000BC0833021F41C163CF0CCE005C0843082
:1008600019F41C160CF0C3E66F2D802F0E94530262
:10087000C102D12D1124D595D595C7FDD39580E31F
:100880008D0F0E94A702DD0F8D2F880F880FD80FC4
:100890008C2F8D1B805D0E94A7022FEF83EC99E0C7
:1008A000215080409040E1F700C00000CA9BBCCFBF
:1008B0006F2D802F0E94530280E690E00E94EA0292
:1008C0000E94A4036F2D802F0E945302C102D12DDC
:1008D0001124D595D595C7FDD39580E38D0F0E9442
:1008E000A702DD0F8D2F880F880FD80F8C2F8D1B3F
:1008F000805D0E94A7020E94A403C8994DCFC89BA7
:10090000FECF809166008F5F809366008C2FDF9111
:10091000CF911F910F91FF9008950F931F93CF9345
:100920008C0164E081E00E945302F8018281CDECE9
:100930008C9F812D1124869586958695805D0E94D9
:10094000A702F80182818C9F912D1124969596958E
:100950009695990F292F220F220F920F891B805DE8
:100960000E94A7028AE30E94A702F80181818C9F5E
:10097000812D1124869586958695805D0E94A7021B
:10098000F80181818C9F912D1124969596959695CD
:10099000990F292F220F220F920F891B805D0E9431
:1009A000A7028AE30E94A702F80180818C9F812D13
:1009B0001124869586958695805D0E94A702F80190
:1009C00080818C9F912D1124969596959695990FDF
:1009D000292F220F220F920F891B805D0E94A702F0
:1009E00063E082E00E945302F80184818C9F812D94
:1009F0001124869586958695805D0E94A702F80150
:100A000084818C9F912D1124969596959695990F9A
:100A1000292F220F220F920F891B805D0E94A702AF
:100A20008AE30E94A702F80185818C9F812D112401
:100A3000869586958695805D0E94A702F80185813E
:100A40008C9F912D1124969596959695990F292F07
:100A5000220F220F920F891B805D0E94A7028AE35A
:100A60000E94A70283E690E00E94EA02F8018681D4
:100A70008C9F812D1124869586958695805D0E9498
:100A8000A702F80186818C9FC12D1124C695C695B9
:100A9000C695CC0F9C2F990F990FC90F8C1B805DA9
:100AA0000E94A70260E081E00E94530280E20E945F
:100AB000A702CF911F910F910895CF93DF93CDB7E8
:100AC000DEB727970FB6F894DEBF0FBECDBF82E129
:100AD0008B831A82198281E08D838E8389E08F83D4
:100AE00084E08C838FEF81BB1ABA0E9470020E944F
:100AF0004900C8992DC0C89BFECF8FE39CE90197A0
:100B0000F1F700C00000109266004B8164E081E0C4
:100B10000E94C3038B834A8167E081E00E94C30384
:100B20008A834D8163E082E00E94C3038D834E81FE
:100B300066E082E00E94C3038E834F816BE082E017
:100B40000E94C3038F831982CE0101960E941F0366
:100B5000CE0101960E945B03CE0101960E948D0496
:100B60009FEF23ED80E3915020408040E1F700C0EB
:100B70000000BFCF97FB072E16F4009407D077FD37
:100B800009D00E94CE0507FC05D03EF490958195D2
:100B90009F4F0895709561957F4F0895AA1BBB1BC9
:100BA00051E107C0AA1FBB1FA617B70710F0A61B6D
:100BB000B70B881F991F5A95A9F780959095BC018E
:080BC000CD010895F894FFCF68
:060BC80020200032300085
:00000001FF
